:020000040000FA
:08000000830100000000D62A74
:020008000800EE
:06000A00851A3729401899
:100010002229C0198F29C01B0528A001A1018E012A
:100020008F018C011014851821280B100B18212822
:10003000851A37290B1821280C1C05280B18212894
:1000400016288B1000000518A1178B1C2528051DEC
:1000500027288B100B10051821178B1C2D28051D28
:100060002F288B1000000518A1168B1C3528051DA4
:1000700037288B100000051821168B1C3D28051D04
:100080003F288B1000000518A1158B1C45288B10EC
:100090000000051D4728051821158B1C4D28051D3E
:1000A0004F288B1000000518A1148B1C5528051D26
:1000B00057288B100000051821148B1C5D28051D86
:1000C0005F288B1000000518A0178B1C6528051DE4
:1000D00067288B100000051820178B1C6D28051D44
:1000E0006F288B1000000518A0168B1C7528051DA5
:1000F00077288B100000051820168B1C7D28051D05
:100100007F288B1000000518A0158B1C8528051D65
:1001100087288B100000051820158B1C8D28051DC5
:100120008F288B1000000518A0148B1C9528051D26
:10013000972800000000051820148B1C9D280B1820
:100140000528F530210603191D2A401B05284F30CC
:1001500020060319B4288F3020060319BD28CF309C
:1001600020060319C2280528DF3021060319272994
:100170007930210603198C2A0528DF30210603195E
:10018000F62805285F30210603191C299F30210617
:1001900003192F29CF3021060319DF28D730210674
:1001A0000319A729DB3021060319E129DD302106D7
:1001B00003198A29DE30210603198A2905288316A6
:1001C000851283128516C222C222401A8E22C222B2
:1001D000C2228512831685168312401E0528A3307D
:1001E000B3008E018F018C0110140A2B8316851227
:1001F00083128516C222C222C222C222851283160F
:10020000851683122830B200D222831685128312FB
:100210008516C222C222401A8E22C222C222851212
:10022000831685168312401E0528FF30B3008E0109
:100230008F018C0110140A2B40087039013AC0005C
:10024000B722A12285190516851D05120B28400825
:100250007039023AC000B722932205120B284008D9
:100260007039043AC000B7229A2205160B28C22220
:10027000C222C222851E052807083F39C100851AFF
:100280008229C013401E052885190516851D0512F3
:10029000C22285190516851D0512C222851905166B
:1002A000851D0512C22285190516851D05128101BD
:1002B00083160108F039810083127430B2001430C3
:1002C000B1008B160B11851A7A2985190516851D23
:1002D00005120B1D63290B11B10B63291430B100FA
:1002E000B20B63298B129B30B3008E018F018C01FE
:1002F00010140A2B8B12FB30B3008E018F018C017E
:1003000010140A2B070841063F3903193F29A82278
:10031000851A872940087039083AC000B722A822F8
:1003200007080739C100411D9E2904304106031901
:1003300022290530410603192D29352901304106AE
:10034000031935290230410603192D2922294008B5
:10035000103AC000B722401AC72907083F39C10028
:10036000B0227830B200D2229A227830B200D22263
:10037000A1227830B200D22293227830B200D22269
:10038000B0227830B200D222410887000528070841
:100390003F39C100B0227830B200D22293227830A7
:1003A000B200D222A1227830B200D2229A22783032
:1003B000B200D222B0227830B200D22241088700A7
:1003C00005284008203AC000B722C01A022A871127
:1003D00007083F39C100B0227830B200D222932200
:1003E0007830B200D222B0227830B200D2229322EA
:1003F0007830B200D222B0227830B200D222410846
:1004000087000528871507083F39C100B0227830DA
:10041000B200D2229A227830B200D222B0227830B2
:10042000B200D2229A227830B200D222B0227830A2
:10043000B200D2224108870005280F302006031998
:10044000222A05284008403AC000B722401B5A2AF9
:1004500007083F39C100B0223C30B200D2229A22B4
:100460003C30B200D222B0223C30B200D2229A22DA
:100470003C30B200D222B0223C30B200D2229A22CA
:100480003C30B200D222B0223C30B200D2229A22BA
:100490003C30B200D222B0223C30B200D2229A22AA
:1004A0003C30B200D222B0223C30B200D22241080D
:1004B0008700052807083F39C100B0223C30B20050
:1004C000D22293223C30B200D222B0223C30B20081
:1004D000D22293223C30B200D222B0223C30B20071
:1004E000D22293223C30B200D222B0223C30B20061
:1004F000D22293223C30B200D222B0223C30B20051
:10050000D22293223C30B200D222B0223C30B20040
:10051000D222410887000528C0175A2A85190516D6
:10052000851D0512080007080F39103A0719303ADF
:100530008700080007080F39203A0719303A87006A
:10054000080007080F39303A0719303A87000800C9
:1005500007080F390718203A8718103A8700080053
:1005600007080F39003A0719303A87000800400899
:1005700083169A001C1555309D00AA309D009C14CE
:1005800083120800810183160108F039810083126B
:100590001430B1008B160B110B1DCC2AB10BCB2ADA
:1005A0008B120800C222B20BD22A080085018701F3
:1005B0000730990018308B00831670308F0091013E
:1005C0002F308500073087000030950002309600FC
:1005D0008030810083121030900005128715C00111
:1005E000031083169B011C141A0883127F39C00064
:1005F000C01E87114018A122C018932240199A22C8
:10060000C019A822401E162BA330B3008E018F0103
:100610008C01101485190516851D0512C019A82214
:100620000C1C0A2B8C01B30B0A2B1010401822292A
:0A063000C0182D2940193529902922
:04063A000034003454
:02400E00D438A4
:0242000022009A
:00000001FF
