:020000040000FA
:08000000830100000000D72A73
:0800080018308B00000000001D
:100010000518A1178B1C0A28051D0C288B100B1026
:10002000051821178B1C1228051D14288B100000A1
:100030000518A1168B1C1A28051D1C288B10000002
:10004000051821168B1C2228051D24288B10000062
:100050000518A1158B1C2A28051D2C288B100000C3
:10006000051821158B1C3228051D34288B10000023
:100070000518A1148B1C3A28051D3C288B10000084
:10008000051821148B1C4228051D44288B100000E4
:100090000518A0178B1C4A28051D4C288B10000042
:1000A000051820178B1C5228051D54288B100000A2
:1000B0000518A0168B1C5A28051D5C288B10000003
:1000C000051820168B1C6228051D64288B10000063
:1000D0000518A0158B1C6A28051D6C288B100000C4
:1000E000051820158B1C7228051D74288B10000024
:1000F0000518A0148B1C7A28051D7C288B10000085
:10010000051820148B1C82280B188828221408003C
:0C0110008B01A001A101A2018B150900C8
:04011C008B01851AB4
:10012000262A40182129C0197E2AA001A101A20176
:100130008E018F018C0110148518042088308B00EB
:0E0140002218A928851A262A0C1C8E28A02811
:02014E0000347B
:02015000003479
:0E0152008B014F3020060319B7288F3020068E
:100160000319BC28CF3020060319C1288E28DF30A0
:100170002106031926298E28DF3021060319F528C8
:100180008E285F30210603191B299F302106031991
:100190002E29CF3021060319DE28D7302106031976
:1001A0003629DB30210603197029DD3021060319B9
:1001B000792ADE3021060319792A8E2883168512C2
:1001C00083128516C222C222401A8E22C222C22265
:1001D0008512831685168312401E8E28A330B30025
:1001E0008E018F018C0110140A2B83168512831245
:1001F0008516C222C222C222C22285128316851609
:1002000083122830B200D3228316851283128516FA
:10021000C222C222401A8E22C222C2228512831614
:1002200085168312401E8E28FF30B3008E018F0189
:100230008C0110140A2B40087039013AC000B72213
:10024000A12285190516851D0512952840087039CB
:10025000023AC000B722932205129528400870394F
:10026000043AC000B7229A22051695284008103A91
:10027000C000B722401A562907083F39C100B022F2
:100280007830B200D3229A227830B200D322A12251
:100290007830B200D32293227830B200D322B02239
:1002A0007830B200D322410887008E2807083F39F2
:1002B000C100B0227830B200D32293227830B2004D
:1002C000D322A1227830B200D3229A227830B20011
:1002D000D322B0227830B200D322410887008E2882
:1002E0004008203AC000B722C01A91298711070898
:1002F0003F39C100B0227830B200D3229322783047
:10030000B200D322B0227830B200D32293227830C8
:10031000B200D322B0227830B200D3224108870045
:100320008E28871507083F39C100B0227830B20007
:10033000D3229A227830B200D322B0227830B20091
:10034000D3229A227830B200D322B0227830B20081
:08035000D322410887008E282A
:04044C008B01C2223C
:10045000C222C222851E8E2807083F39C100851A94
:10046000712A401E8E2885190516851D0512C22287
:1004700085190516851D0512C22285190516851DCB
:100480000512C22285190516851D051281018316E4
:100490000108F039810083127430B2001430B100C9
:1004A00020308B00851A692A85190516851D0512CD
:1004B0000B1D522A0B11B10B522A1430B100B20B92
:1004C000522A8B019B30B3008E018F018C011014D6
:1004D0000A2B8B01FB30B3008E018F018C011014AD
:1004E0000A2B070841063F3903192F2AA822851A2B
:1004F000762A40087039083AC000B722A8220708B7
:10050000C100411D882A41182C29C11834292129EC
:0A051000411C2C29C11C34292129AB
:04051C008519051622
:10052000851D0512080007080F39103A0719303ADF
:100530008700080007080F39203A0719303A87006A
:10054000080007080F39303A0719303A87000800C9
:1005500007080F390718203A8718103A8700080053
:1005600007080F39003A0719303A87000800400899
:1005700083169A001C1555309D00AA309D009C14CE
:1005800083120800810183160108F039810083126B
:100590001430B10020308B000B110B1DCD2AB10B94
:0E05A000CC2A8B010800C222B20BD32A08001D
:0205AE008501C5
:1005B0008701073099008B01831670308F009101FD
:1005C0002F308500073087000030950002309600FC
:1005D0008030810083121030900005128715C00111
:1005E000031083169B011C141A0883123F39C000A4
:1005F000C01E87114018A122C018932240199A22C8
:10060000C019A822401E162BA330B3008E018F0103
:100610008C01101485190516851D0512C019A82214
:100620000C1C0A2B8C01B30B0A2B1010401821292B
:0A063000C0182C29401934297F2A34
:02400E00D438A4
:0242000022009A
:00000001FF
