:020000040000FA
:08000000830100000000542BF5
:0800080018308B00C019852897
:100010000518A1178B1C0A28051D0C288B100B1026
:10002000051821178B1C1228051D142800008B10A1
:100030000518A1168B1C1A28051D1C2800008B1002
:10004000051821168B1C2228051D242800008B1062
:100050000518A1158B1C2A28051D2C2800008B10C3
:10006000051821158B1C3228051D342800008B1023
:100070000518A1148B1C3A28051D3C2800008B1084
:10008000051821148B1C4228051D442800008B10E4
:100090000518A0178B1C4A28051D4C2800008B1042
:1000A000051820178B1C5228051D542800008B10A2
:1000B0000518A0168B1C5A28051D5C2800008B1003
:1000C000051820168B1C6228051D642800008B1063
:1000D0000518A0158B1C6A28051D6C2800008B10C4
:1000E000051820158B1C7228051D742800008B1024
:1000F0000518A0148B1C7A28051D7C2800008B1085
:10010000051820148B1C82281F290518A1178B1C89
:100110008728051D89288C2800008B100B100518D6
:1001200021178B1C9128051D9328962800008B1001
:1001300000000518A1168B1C9B28051D9D28A028D2
:1001400000008B100000051821168B1CA528051D2A
:10015000A728AA2800008B1000000518A1158B1CE9
:10016000AF28051DB128B42800008B100000051829
:1001700021158B1CB928051DBB28BE2800008B103B
:1001800000000518A1148B1CC328051DC528C8280C
:1001900000008B100000051821148B1CCD28051DB4
:1001A000CF28D22800008B1000000518A0178B1C48
:1001B000D728051DD928DC2800008B100000051861
:1001C00020178B1CE128051DE328E62800008B1072
:1001D00000000518A0168B1CEB28051DED28F02843
:1001E00000008B100000051820168B1CF528051D3B
:1001F000F728FA2800008B1000000518A0158B1CAA
:10020000FF28051D0129042900008B100000051896
:1002100020158B1C0929051D0B290E2900008B10A8
:1002200000000518A0148B1C1329051D1529182979
:1002300000008B100000051820148B1C1D290B18C2
:100240002329221408008B01A101A001A2018B1512
:1002500009008B01851A7D2A4018D52AC018B429B7
:10026000A101A001A2018E018F018C01101485183B
:10027000042088308B0022184229851A7D2A0C1C04
:1002800029293B298B014F302006031954298F302F
:10029000200603195929CF302006031960290F3091
:1002A000200603193E2A2929DF3021060319B9291E
:1002B0002929FF30B300DF30210603197F292929BE
:1002C000A330B300CF30210603198E295F302106F9
:1002D0000319AE299F3021060319C029D730210602
:1002E0000319C829DB3021060319022ADD30210653
:1002F0000319D02ADE3021060319D02A29298316B2
:100300008512831285161C231C231C231C23851293
:100310008316851683122830B20050238316851267
:10032000831285161C231C23401AE4221C231C2341
:100330008512831685168312401EA3298E018F0114
:100340008C0110148C2B7430B2004018A929502352
:100350002929FE221C23B20BA929D52A4008783965
:10036000023AC0000D23F72285190516851D0512D6
:10037000302940087839C0000D23E92205123029C0
:1003800040087839043AC0000D23F02205163029C0
:100390004008103AC0000D23401AE82907083F39E9
:1003A000C20006237830B2005023F0227830B20029
:1003B0005023F7227830B2005023E9227830B2007F
:1003C000502306237830B2005023420887002929A1
:1003D00007083F39C20006237830B2005023E922D3
:1003E0007830B2005023F7227830B2005023F02248
:1003F0007830B200502306237830B20050234208F0
:10040000870029294008203AC0000D23C01A232A5A
:10041000871107083F39C20006237830B200502305
:10042000E9227830B200502306237830B2005023FE
:10043000E9227830B200502306237830B2005023EE
:10044000420887002929871507083F39C20006237B
:100450007830B2005023F0227830B20050230623C7
:100460007830B2005023F0227830B20050230623B7
:100470007830B20050234208870029292F30210606
:100480000319432A29294008083AC0000D23C01D3A
:10049000632A07083F39C20006237830B200502390
:1004A000F0227830B2005023F7227830B200502387
:1004B000F0227830B200502306237830B200502367
:1004C00042088700292907083F39C20006237830EF
:1004D000B2005023E9227830B2005023F72278305E
:1004E000B2005023E9227830B2005023062378303E
:1004F000B20050234208870029298B011C231C23AA
:100500001C23851E292907083F39C100851AC82ADE
:10051000401E292985190516851D05121C238519DC
:100520000516851D05121C2385190516851D051246
:100530001C2385190516851D0512810183160108E6
:10054000F039810083127430B2001430B1002030D1
:100550008B00851AC02A85190516851D05120B1DED
:10056000A92A0B11B10BA92A1430B100B20BA92A88
:100570008B019B30B3008E018F018C0110148C2BEA
:100580008B01FB30B3008E018F018C0110148C2B7A
:10059000070841063F390319862AFE22851ACD2A0B
:1005A00040087839013AC0000D23FE220708C10037
:1005B000411DDF2A4118BE29C118C629B429411C92
:1005C000BE29C11CC629B42985190516851D051229
:1005D000080007080F39103A0719303A8700080059
:1005E00007080F39203A0719303A87000800070832
:1005F0000F39303A0719303A8700080007080F39D9
:100600000718203A8718103A8700080007080F39A2
:10061000003A0719303A87000800400883169A000C
:100620009B011C1555309D00AA309D009C149C1800
:10063000172B1C1183120800810183160108F03961
:10064000810083121430B10020308B000B11401850
:100650003623C01831230B1D272BB10B262B8B0102
:10066000080085190516851D051208000708C10038
:10067000411D432B41184C2BC1184E2B85190516D3
:10068000851D05120800411C4C2BC11C4E2B8519E1
:100690000516851D0512080005120800051608003C
:1006A0001C23B20B502B08008501870107309900ED
:1006B0008B01831670308F0091012F308500073039
:1006C0008700003095000230960080308100831250
:1006D0001030900005128715C001031083169B018E
:1006E0001C141A0883123F39C000C01E871140181D
:1006F000832BC018812B401D7F2BF022842BE922F5
:10070000842BF722842BFE22401E982BA330B300AB
:100710008E018F018C01101485190516851D051297
:100720004018FE220C1C8C2B8C01B30B8C2B101050
:0E0730004018D62AC018B429401DBE29C6297B
:02073E00003485
:02074000003483
:02400E00D438A4
:0242000020009C
:00000001FF
