:020000040000FA
:08000000830100000000692AE1
:020008000800EE
:06000A00851A3C29401894
:100010002729C0199329A001A1018E018F018C010C
:10002000101485181F280B100B181F28851A3C293F
:100030000B181F280C1C05280B181F2814288B10C0
:1000400000000518A1178B1C23288B1005088B1C9A
:10005000050801398B1C2728031D21170B108B1055
:1000600005088B1C050801398B1C3128031DA116BE
:100070008B1005088B1C050801398B1C3A28031DC1
:1000800021168B1005088B1C050801398B1C432891
:10009000031DA1158B1005088B1C050801398B1C4D
:1000A0004C28031D21158B1005088B1C05080139F0
:1000B0008B1C5528031DA1148B1005088B1C0508EB
:1000C00001398B1C5E28031D21148B1005088B1C25
:1000D000050801398B1C6728031DA0178B10050824
:1000E0008B1C050801398B1C7028031D20178B10F1
:1000F00005088B1C050801398B1C7928031DA016E7
:100100008B1005088B1C050801398B1C8228031DE8
:1001100020168B10050801398B1C050801398B1C32
:100120008C28031DA0158B1005088B1C05080139B0
:100130008B1C9528031D20158B1005088B1C0508AA
:1001400001398B1C9E28031DA0148B1005088B1CE5
:10015000050801398B1CA728031D20140B1805283E
:100160004F3020060319BD288F3020060319C228FE
:10017000CF3020060319C7280528DF3021060319D0
:100180002C290528DF3021060319FB2805285F30BC
:100190002106031921299F30210603193429CF3064
:1001A00021060319E428D73021060319AB29DB30D7
:1001B00021060319E529DD30210603198E29DE30D9
:1001C000210603198E2905288316851283128516A8
:1001D00055225522401A2122552255228512831676
:1001E00085168312401E0528A330B3008E018F01AF
:1001F0008C0110149D2A83168512831285165522B0
:1002000055225522552285128316851683122830D1
:10021000B200652283168512831285165522552257
:10022000401A2122552255228512831685168312E3
:10023000401E0528FF30B3008E018F018C01101481
:100240009D2A40087039013AC0004A22342285199B
:100250000516851D05120B2840087039023AC000AA
:100260004A22262205120B2840087039043AC000A1
:100270004A222D2205160B28552255225522851E6D
:10028000052807083F39C100851A8629401E052820
:1002900085190516851D0512552285190516851D1A
:1002A0000512552285190516851D05125522851939
:1002B0000516851D0512810183160108F03981009C
:1002C00083127430B2001430B1008B160B11851AF2
:1002D0007E2985190516851D05120B1D67290B1131
:1002E000B10B67291430B100B20B67298B129B3018
:1002F000B3008E018F018C0110149D2A8B12FB30EC
:10030000B3008E018F018C0110149D2A070841064D
:100310003F39031944293B22851A8B29400870393B
:10032000083AC0004A223B2207080739C100411D94
:10033000A229043041060319272905304106031973
:1003400032293A290130410603193A29023041067F
:100350000319322927294008103AC0004A22401ABE
:10036000CB2907083F39C10043227830B20065220B
:100370002D227830B200652234227830B200652216
:1003800026227830B200652243227830B2006522FE
:1003900041088700052807083F39C100432278300B
:1003A000B200652226227830B200652234227830ED
:1003B000B20065222D227830B200652243227830C7
:1003C000B20065224108870005284008203AC00095
:1003D0004A22C01A062A871107083F39C100432262
:1003E0007830B200652226227830B200652243229E
:1003F0007830B200652226227830B200652243228E
:100400007830B20065224108870005288715070863
:100410003F39C10043227830B20065222D22783066
:10042000B200652243227830B20065222D22783056
:10043000B200652243227830B2006522410887006D
:10044000052885190516851D0512080007080F39AE
:10045000103A0719303A8700080007080F39203A88
:100460000719303A8700080007080F39303A071992
:10047000303A8700080007080F390718203A871814
:10048000103A8700080007080F39003A0719303A78
:1004900087000800400883169A001C1555309D00FF
:1004A000AA309D009C148312080081018316010864
:1004B000F039810083121430B1008B160B110B1D23
:1004C0005F2AB10B5E2A8B1208005522B20B652AF7
:1004D0000800850187010730990018308B008316CA
:1004E00070308F0091012F30850007308700003079
:1004F0009500023096008030810083121030900009
:1005000005128715C001031083169B011C141A08DD
:1005100083123F39C000C01E871140183422C01812
:10052000262240192D22C0193B22401EA92AA330A1
:10053000B3008E018F018C01101485190516851DDD
:100540000512C0193B220C1C9D2A8C01B30B9D2A5D
:10055000101040182729C018322940193A29942927
:04056000003400342F
:02400E00D438A4
:0242000022009A
:00000001FF
