:020000040000FA
:08000000830100000000582AF2
:020008000800EE
:06000A00851A2B294018A5
:100010001629C0198229A001A1018E018F018C012E
:10002000101485181F280B100B181F28851A2B2950
:100030000B181F280C1C05280B181F2814288B10C0
:1000400000000518A1178B1C2328051D25288B10DF
:100050000B10051821178B1C2B28051D2D288B1024
:1000600000000518A1168B1C3328051D35288B10A0
:100070000000051821168B1C3B28051D3D288B1000
:1000800000000518A1158B1C43288B100000051DCE
:100090004528051821158B1C4B28051D4D288B1054
:1000A00000000518A1148B1C5328051D55288B1022
:1000B0000000051821148B1C5B28051D5D288B1082
:1000C00000000518A0178B1C6328051D65288B10E0
:1000D0000000051820178B1C6B28051D6D288B1040
:1000E00000000518A0168B1C7328051D75288B10A1
:1000F0000000051820168B1C7B28051D7D288B1001
:1001000000000518A0158B1C8328051D85288B1061
:100110000000051820158B1C8B28051D8D288B10C1
:1001200000000518A0148B1C9328051D95280000BD
:100130000000051820148B1C9B280B1805284F3035
:1001400020060319AC288F3020060319B128CF30C0
:1001500020060319B6280528DF30210603191B29BC
:100160000528DF3021060319EA2805285F3021061B
:10017000031910299F30210603192329CF302106A6
:100180000319D328D730210603199A29DB30210619
:100190000319D429DD30210603197D29DE3021061B
:1001A00003197D290528831685128312851644229A
:1001B0004422401A102244224422851283168516B6
:1001C0008312401E0528A330B3008E018F018C01DD
:1001D00010148C2A83168512831285164422442219
:1001E0004422442285128316851683122830B200D9
:1001F0005422831685128312851644224422401A03
:100200001022442244228512831685168312401E32
:100210000528FF30B3008E018F018C0110148C2A49
:1002200040087039013AC000392223228519051689
:10023000851D05120B2840087039023AC00039228A
:10024000152205120B2840087039043AC0003922E3
:100250001C2205160B28442244224422851E052810
:1002600007083F39C100851A7529401E05288519E0
:100270000516851D0512442285190516851D0512D2
:10028000442285190516851D051244228519051677
:10029000851D0512810183160108F0398100831242
:1002A0007430B2001430B1008B160B11851A6D2911
:1002B00085190516851D05120B1D56290B11B10B4D
:1002C00056291430B100B20B56298B129B30B30063
:1002D0008E018F018C0110148C2A8B12FB30B3001D
:1002E0008E018F018C0110148C2A070841063F39BA
:1002F000031933292A22851A7A2940087039083AC5
:10030000C00039222A2207080739C100411D91295E
:100310000430410603191629053041060319212925
:100320002929013041060319292902304106031900
:10033000212916294008103AC0003922401ABA294A
:1003400007083F39C10032227830B20054221C2203
:100350007830B200542223227830B2005422152281
:100360007830B200542232227830B2005422410850
:100370008700052807083F39C10032227830B200D3
:10038000542215227830B200542223227830B20051
:1003900054221C227830B200542232227830B2002B
:1003A00054224108870005284008203AC00039221D
:1003B000C01AF529871107083F39C1003222783069
:1003C000B200542215227830B20054223222783002
:1003D000B200542215227830B200542232227830F2
:1003E000B2005422410887000528871507083F39C5
:1003F000C10032227830B20054221C227830B20080
:10040000542232227830B20054221C227830B200BA
:10041000542232227830B200542241088700052845
:1004200085190516851D0512080007080F39103AB1
:100430000719303A8700080007080F39203A0719D2
:10044000303A8700080007080F39303A0719303A68
:100450008700080007080F390718203A8718103A54
:100460008700080007080F39003A0719303A87005B
:100470000800400883169A001C1555309D00AA30CC
:100480009D009C1483120800810183160108F03935
:10049000810083121430B1008B160B110B1D4E2AF4
:1004A000B10B4D2A8B1208004422B20B542A0800CB
:1004B000850187010730990018308B008316703052
:1004C0008F0091012F3085000730870000309500A4
:1004D00002309600803081008312103090000512A7
:1004E0008715C001031083169B011C141A08831280
:1004F0003F39C000C01E871140182322C0181522A2
:1005000040191C22C0192A22401E982AA330B30089
:100510008E018F018C01101485190516851D051299
:10052000C0192A220C1C8C2A8C01B30B8C2A1010A7
:0E05300040181629C0182129401929298329AD
:02053E00003487
:02054000003485
:02400E00D438A4
:0242000022009A
:00000001FF
