:020000040000FA
:08000000830100000000E72A63
:020008000800EE
:06000A00851A4829401888
:100010003329C019A029C01B0528A001A1018E0108
:100020008F018C011014851821280B100B18212822
:10003000851A48290B1821280C1C05280B18212883
:1000400016288B1000000518A1178B1C25280B10F3
:100050008B1005088B1C050801398B1C2A28031DF1
:1000600021178B1005088B1C050801398B1C3328C0
:10007000031DA1168B1005088B1C050801398B1C6C
:100080003C28031D21168B1005088B1C050801391F
:100090008B1C4528031DA1158B1005088B1C05081A
:1000A00001398B1C4E28031D21158B1005088B1C54
:1000B000050801398B1C5728031DA1148B10050856
:1000C0008B1C050801398B1C6028031D21148B1023
:1000D00005088B1C050801398B1C6928031DA01716
:1000E0008B1005088B1C050801398B1C7228031D19
:1000F00020178B1005088B1C050801398B1C7B28E9
:10010000031DA0168B1005088B1C050801398B1CDC
:100110008428031D20168B10050801398B1C050847
:1001200001398B1C8E28031DA0158B1005088B1C14
:10013000050801398B1C9728031D20158B10050815
:100140008B1C050801398B1CA028031DA0148B10E3
:1001500005088B1C050801398B1CA928031D2014D8
:100160000B180528F530210603192E2A401B0528F7
:100170004F3020060319C5288F3020060319CE28DA
:10018000CF3020060319D3280528DF3021060319B4
:1001900038297930210603199D2A0528DF302106E8
:1001A0000319072905285F30210603192D299F30DF
:1001B000210603194029CF3021060319F028D73032
:1001C00021060319B829DB3021060319F229DD3095
:1001D000210603199B29DE30210603199B290528D6
:1001E0008316851283128516D322D322401A9F22AA
:1001F000D322D3228512831685168312401E05282A
:10020000A330B3008E018F018C0110141B2B8316B9
:10021000851283128516D322D322D322D3228512AC
:100220008316851683122830B200E32283168512C6
:1002300083128516D322D322401A9F22D322D3229F
:100240008512831685168312401E0528FF30B300E1
:100250008E018F018C0110141B2B40087039013A5C
:10026000C000C822B22285190516851D05120B286B
:1002700040087039023AC000C822A42205120B2897
:1002800040087039043AC000C822AB2205160B287A
:10029000D322D322D322851E052807083F39C10067
:1002A000851A9329C013401E052885190516851D3A
:1002B0000512D32285190516851D0512D32285192D
:1002C0000516851D0512D32285190516851D0512F3
:1002D000810183160108F039810083127430B20065
:1002E0001430B1008B160B11851A8B298519051650
:1002F000851D05120B1D74290B11B10B74291430C7
:10030000B100B20B74298B129B30B3008E018F01A8
:100310008C0110141B2B8B12FB30B3008E018F014C
:100320008C0110141B2B070841063F390319502973
:10033000B922851A982940087039083AC000C822A5
:10034000B92207080739C100411DAF290430410611
:10035000031933290530410603193E294629013086
:100360004106031946290230410603193E29332963
:100370004008103AC000C822401AD82907083F395F
:10038000C100C1227830B200E322AB227830B20043
:10039000E322B2227830B200E322A4227830B20005
:1003A000E322C1227830B200E32241088700052809
:1003B00007083F39C100C1227830B200E322A422ED
:1003C0007830B200E322B2227830B200E322AB22CE
:1003D0007830B200E322C1227830B200E322410833
:1003E000870005284008203AC000C822C01A132AF6
:1003F000871107083F39C100C1227830B200E322DB
:10040000A4227830B200E322C1227830B200E32285
:10041000A4227830B200E322C1227830B200E32275
:10042000410887000528871507083F39C100C12208
:100430007830B200E322AB227830B200E322C1224E
:100440007830B200E322AB227830B200E322C1223E
:100450007830B200E3224108870005280F302006DB
:100460000319332A05284008403AC000C822401B1F
:100470006B2A07083F39C100C1223C30B200E32299
:10048000AB223C30B200E322C1223C30B200E32276
:10049000AB223C30B200E322C1223C30B200E32266
:1004A000AB223C30B200E322C1223C30B200E32256
:1004B000AB223C30B200E322C1223C30B200E32246
:1004C000AB223C30B200E322C1223C30B200E32236
:1004D00041088700052807083F39C100C1223C3088
:1004E000B200E322A4223C30B200E322C1223C301D
:1004F000B200E322A4223C30B200E322C1223C300D
:10050000B200E322A4223C30B200E322C1223C30FC
:10051000B200E322A4223C30B200E322C1223C30EC
:10052000B200E322A4223C30B200E322C1223C30DC
:10053000B200E322410887000528C0176B2A8519FD
:100540000516851D0512080007080F39103A07190E
:10055000303A8700080007080F39203A0719303A67
:100560008700080007080F39303A0719303A87002A
:10057000080007080F390718203A8718103A870033
:10058000080007080F39003A0719303A87000800B9
:10059000400883169A001C1555309D00AA309D0016
:1005A0009C1483120800810183160108F039810030
:1005B00083121430B1008B160B110B1DDD2AB10B09
:1005C000DC2A8B120800D322B20BE32A0800850133
:1005D00087010730990018308B00831670308F0028
:1005E00091012F30850007308700003095000230E0
:1005F000960080308100831210309000051287151C
:10060000C001031083169B011C141A0883127F3942
:10061000C000C01E87114018B222C018A422401981
:10062000AB22C019B922401E272BA330B3008E0184
:100630008F018C01101485190516851D0512C0192E
:10064000B9220C1C1B2B8C01B30B1B2B1010401858
:0C0650003329C0183E2940194629A12971
:04065C000034003432
:02400E00D438A4
:0242000022009A
:00000001FF
