:020000040000FA
:100000008316FF2390008312831285010730990025
:1000100000308B0083162F308500073087000030BA
:10002000950080308100831205128715D0010310DE
:1000300083169B011C141A088312D000D01A87154E
:10004000D01E871150188D21D0187F21501986217C
:10005000D0199421501E35283C30D2007A2101302D
:100060007421D0199421D20B2E285018C128D018F1
:10007000CC285019D428ED28851AD6285018C12824
:10008000D019EC28851C3C2885184428A001A10122
:10009000A201031005194A280508A00D0139A00482
:1000A000A20A051D5128A21D4C28A2010508A10D78
:1000B0000139A104A20A051D5B28221D562804301F
:1000C000210603196C2808302106031971280C3009
:1000D0002106031976284228DF302006031D422816
:1000E000C628DF302006031D4228A3285F302006E3
:1000F0000319BB289F3020060319CE28CF302006D5
:1001000003199328D730200603190829DB3020066D
:1001100003193829DD3020060319E728DE302006D0
:100120000319E72842288316851283128516501A70
:100130007A2115306E21831685168312501E4228AF
:100140003C30D2002E288316851283128516153076
:100150006E218316851603016E2185128312851682
:1001600015306E218512831685168312501E422883
:100170006530D2002E285008F039013AD000A32172
:100180008D2185190516851D051242285008F03964
:10019000023AD000A3217F21051242285008F039ED
:1001A000043AD000A3218621051642280430D3004A
:1001B00001307421851AE228501E42287A213C30F1
:1001C000D2002E28D30BD8289421851AE428500871
:1001D000F039083AD000A3219421A301071DFC287F
:1001E00007080339A300003023060319C128013092
:1001F00023060319CC28D42807080339A3000130AB
:1002000023060319D428023023060319CC28C12859
:100210005008103AD000A321501A23290708383972
:10022000D1009C21033074218621033074218D215B
:10023000033074217F21033074219C210330742109
:1002400051088700422807083839D1009C21033023
:1002500074217F21033074218D2103307421862184
:10026000033074219C2103307421510887004228F7
:100270005008203AD000A321D01A5429871107082A
:100280003839D1009C21033074217F21033074213F
:100290009C21033074217F21033074219C21033081
:1002A0007421510887004228871507083839D10082
:1002B0009C21033074218621033074219C2103305A
:1002C00074218621033074219C210330742151084C
:1002D00087004228AF00AF0B6B297129AE000301E4
:1002E0006A29AE0B70290800AD0003016E21AD0B29
:1002F0007629080085190516851D051208000708CE
:100300000839103A0719303A8700080007080839F9
:10031000203A0719303A8700080007080839303AB0
:100320000719303A870008000708083907182038ED
:10033000871810388700080007080839003A07199D
:10034000303A8700080083169A001C1555309D002E
:0A035000AA309D009C1483120800DF
:04035A000034003437
:02400E00D43F9D
:0242000022009A
:00000001FF
