:020000040000FA
:08000000830100000000D72A73
:0800080018308B00000000001D
:100010000518A1178B1C0A28051D0C288B100B1026
:10002000051821178B1C1228051D14288B100000A1
:100030000518A1168B1C1A28051D1C288B10000002
:10004000051821168B1C2228051D24288B10000062
:100050000518A1158B1C2A28051D2C288B100000C3
:10006000051821158B1C3228051D34288B10000023
:100070000518A1148B1C3A28051D3C288B10000084
:10008000051821148B1C4228051D44288B100000E4
:100090000518A0178B1C4A28051D4C288B10000042
:1000A000051820178B1C5228051D54288B100000A2
:1000B0000518A0168B1C5A28051D5C288B10000003
:1000C000051820168B1C6228051D64288B10000063
:1000D0000518A0158B1C6A28051D6C288B100000C4
:1000E000051820158B1C7228051D74288B10000024
:1000F0000518A0148B1C7A28051D7C288B10000085
:10010000051820148B1C82280B188828221408003C
:0C0110008B01A001A101A2018B150900C8
:04011C008B01851AB4
:10012000262A40182B29C0197F2AC01B8E28A0011F
:10013000A101A2018E018F018C01101485180420E9
:1001400088308B002218A928851A262A0C1C8E2894
:02015000A228E3
:0E0152008B01F53021060319B629401B8E28BB
:100160004F3020060319BD288F3020060319C628FA
:10017000CF3020060319CB288E28DF302106031943
:100180003029793021060319F3298E28DF30210622
:100190000319FF288E285F302106031925299F3077
:1001A000210603193829CF3021060319E828D73052
:1001B000210603194029DB30210603197A29DD3095
:1001C000210603197A2ADE30210603197A2A8E289D
:1001D0008316851283128516C222C222401A8E22ED
:1001E000C222C2228512831685168312401E8E28D3
:1001F000A330B3008E018F018C0110140A2B8316DB
:10020000851283128516C222C222C222C222851200
:100210008316851683122830B200D32283168512E6
:1002200083128516C222C222401A8E22C222C22204
:100230008512831685168312401E8E28FF30B30068
:100240008E018F018C0110140A2B40087039013A7D
:10025000C000B722A12285190516851D0512952813
:1002600040087039023AC000B7229322051295283F
:1002700040087039043AC000B7229A220516952822
:100280004008103AC000B722401A602907083F39D9
:10029000C100B0227830B200D3229A227830B20066
:1002A000D322A1227830B200D32293227830B20038
:1002B000D322B0227830B200D322410887008E28A2
:1002C00007083F39C100B0227830B200D322932210
:1002D0007830B200D322A1227830B200D3229A2201
:1002E0007830B200D322B0227830B200D322410855
:1002F00087008E284008203AC000B722C01A9B29E8
:10030000871107083F39C100B0227830B200D322EC
:1003100093227830B200D322B0227830B200D322B8
:1003200093227830B200D322B0227830B200D322A8
:10033000410887008E28871507083F39C100B02281
:100340007830B200D3229A227830B200D322B02281
:100350007830B200D3229A227830B200D322B02271
:100360007830B200D322410887008E280F30200653
:100370000319BB298E284008403AC000B722401B11
:10038000F42907083F39C100B0223C30B200D32223
:100390009A223C30B200D322B0223C30B200D322A9
:1003A0009A223C30B200D322B0223C30B200D32299
:1003B0009A223C30B200D322B0223C30B200D32289
:1003C0009A223C30B200D322B0223C30B200D32279
:1003D0009A223C30B200D322B0223C30B200D32269
:1003E000410887008E28C01707083F39C100B02296
:1003F0003C30B200D32293223C30B200D322B02250
:100400003C30B200D32293223C30B200D322B0223F
:100410003C30B200D32293223C30B200D322B0222F
:100420003C30B200D32293223C30B200D322B0221F
:100430003C30B200D32293223C30B200D322B0220F
:0C0440003C30B200D322410887008E2817
:04044C008B01C2223C
:10045000C222C222851E8E2807083F39C100851A94
:10046000722AC013401E8E2885190516851D051297
:10047000C22285190516851D0512C2228519051689
:10048000851D0512C22285190516851D05128101DB
:1004900083160108F039810083127430B2001430E1
:1004A000B10020308B00851A6A2A85190516851D32
:1004B00005120B1D532A0B11B10B532A1430B10036
:1004C000B20B532A8B019B30B3008E018F018C013C
:1004D00010140A2B8B01FB30B3008E018F018C01AD
:1004E00010140A2B070841063F3903192F2AA822A6
:1004F000851A772A40087039083AC000B722A82226
:100500000708C100411D892A41183629C1183E2912
:0C0510002B29411C3629C11C3E292B2937
:04051C008519051622
:10052000851D0512080007080F39103A0719303ADF
:100530008700080007080F39203A0719303A87006A
:10054000080007080F39303A0719303A87000800C9
:1005500007080F390718203A8718103A8700080053
:1005600007080F39003A0719303A87000800400899
:1005700083169A001C1555309D00AA309D009C14CE
:1005800083120800810183160108F039810083126B
:100590001430B10020308B000B110B1DCD2AB10B94
:0E05A000CC2A8B010800C222B20BD32A08001D
:0205AE008501C5
:1005B0008701073099008B01831670308F009101FD
:1005C0002F308500073087000030950002309600FC
:1005D0008030810083121030900005128715C00111
:1005E000031083169B011C141A0883127F39C00064
:1005F000C01E87114018A122C018932240199A22C8
:10060000C019A822401E162BA330B3008E018F0103
:100610008C01101485190516851D0512C019A82214
:100620000C1C0A2B8C01B30B0A2B101040182B2921
:0A063000C018362940193E29802A1F
:04063A000034003454
:02400E00D438A4
:024200001200AA
:00000001FF
