:020000040000FA
:08000000830100000000D12B78
:0800080018308B00C019852897
:100010000518A1178B1C0A28051D0C288B100B1026
:10002000051821178B1C1228051D142800008B10A1
:100030000518A1168B1C1A28051D1C2800008B1002
:10004000051821168B1C2228051D242800008B1062
:100050000518A1158B1C2A28051D2C2800008B10C3
:10006000051821158B1C3228051D342800008B1023
:100070000518A1148B1C3A28051D3C2800008B1084
:10008000051821148B1C4228051D442800008B10E4
:100090000518A0178B1C4A28051D4C2800008B1042
:1000A000051820178B1C5228051D542800008B10A2
:1000B0000518A0168B1C5A28051D5C2800008B1003
:1000C000051820168B1C6228051D642800008B1063
:1000D0000518A0158B1C6A28051D6C2800008B10C4
:1000E000051820158B1C7228051D742800008B1024
:1000F0000518A0148B1C7A28051D7C2800008B1085
:10010000051820148B1C82281F290518A1178B1C89
:100110008728051D89288C2800008B100B100518D6
:1001200021178B1C9128051D9328962800008B1001
:1001300000000518A1168B1C9B28051D9D28A028D2
:1001400000008B100000051821168B1CA528051D2A
:10015000A728AA2800008B1000000518A1158B1CE9
:10016000AF28051DB128B42800008B100000051829
:1001700021158B1CB928051DBB28BE2800008B103B
:1001800000000518A1148B1CC328051DC528C8280C
:1001900000008B100000051821148B1CCD28051DB4
:1001A000CF28D22800008B1000000518A0178B1C48
:1001B000D728051DD928DC2800008B100000051861
:1001C00020178B1CE128051DE328E62800008B1072
:1001D00000000518A0168B1CEB28051DED28F02843
:1001E00000008B100000051820168B1CF528051D3B
:1001F000F728FA2800008B1000000518A0158B1CAA
:10020000FF28051D0129042900008B100000051896
:1002100020158B1C0929051D0B290E2900008B10A8
:1002200000000518A0148B1C1329051D1529182979
:1002300000008B100000051820148B1C1D290B18C2
:100240002329221408008B01A101A001A2018B1512
:1002500009008B01851AF92A4018522BC018C029B1
:10026000C01B2929A101A001A2018E018F018C01CF
:1002700010148518042088308B0022184429851A10
:10028000F92A0C1C29293D298B01F5302106031977
:100290004A2A401B29294F30200603195C298F3038
:1002A000200603196529CF30200603196C290F3069
:1002B00020060319BA2A2929DF3021060319C52986
:1002C000793021060319872A2929FF30B300DF304E
:1002D000210603198B292929A330B300CF30210629
:1002E00003199A295F3021060319BA299F30210684
:1002F0000319CC29D73021060319D429DB30210674
:1003000003190E2ADD30210603194D2BDE3021069C
:1003100003194D2B292983168512831285169923DB
:1003200099239923992385128316851683122830E1
:10033000B200CD2383168512831285169923992343
:10034000401A6123992399238512831685168312F7
:10035000401EAF298E018F018C011014092C7430BE
:10036000B2004018B529CD2329297B239923B20B4C
:10037000B529522B40087839023AC0008A237423E9
:1003800085190516851D0512302940087839C000E9
:100390008A2366230512302940087839043AC000C0
:1003A0008A236D23051630294008103AC0008A239D
:1003B000401AF42907083F39C20083237830B2007D
:1003C000CD236D237830B200CD2374237830B20072
:1003D000CD2366237830B200CD2383237830B2005A
:1003E000CD2342088700292907083F39C20083230B
:1003F0007830B200CD2366237830B200CD23742349
:100400007830B200CD236D237830B200CD23832322
:100410007830B200CD234208870029294008203ACD
:10042000C0008A23C01A2F2A871107083F39C2004B
:1004300083237830B200CD2366237830B200CD23F9
:1004400083237830B200CD2366237830B200CD23E9
:1004500083237830B200CD234208870029298715ED
:1004600007083F39C20083237830B200CD236D23C3
:100470007830B200CD2383237830B200CD236D23B2
:100480007830B200CD2383237830B200CD234208E8
:10049000870029290F30200603194F2A29294008EF
:1004A000403AC0008A23401B882A07083F39C2000F
:1004B00083233C30B200CD236D233C30B200CD23EA
:1004C00083233C30B200CD236D233C30B200CD23DA
:1004D00083233C30B200CD236D233C30B200CD23CA
:1004E00083233C30B200CD236D233C30B200CD23BA
:1004F00083233C30B200CD236D233C30B200CD23AA
:1005000083233C30B200CD23420887002929C0173D
:1005100007083F39C20083233C30B200CD23662355
:100520003C30B200CD2383233C30B200CD23662380
:100530003C30B200CD2383233C30B200CD23662370
:100540003C30B200CD2383233C30B200CD23662360
:100550003C30B200CD2383233C30B200CD23662350
:100560003C30B200CD2383233C30B200CD2342087F
:10057000870029292F3021060319BF2A292940087D
:10058000083AC0008A23C01DDF2A07083F39C2008D
:1005900083237830B200CD236D237830B200CD2391
:1005A00074237830B200CD236D237830B200CD2390
:1005B00083237830B200CD23420887002929070819
:1005C0003F39C20083237830B200CD2366237830D0
:1005D000B200CD2374237830B200CD236623783067
:1005E000B200CD2383237830B200CD2342088700A8
:1005F00029298B01992399239923851E29290708E5
:100600003F39C100851A452BC013401E2929851981
:100610000516851D0512992385190516851D0512D8
:10062000992385190516851D051299238519051627
:10063000851D0512810183160108F039810083129E
:100640007430B2001430B10020308B00851A3D2B7D
:1006500085190516851D05120B1D262B0B11B10BD7
:10066000262B1430B100B20B262B8B019B30B3002C
:100670008E018F018C011014092C8B01FB30B3000B
:100680008E018F018C011014092C070841063F3997
:100690000319022B7B23851A4A2B40087839013A2B
:1006A000C0008A237B230708C100411D5C2B411831
:1006B000CA29C118D229C029411CCA29C11CD22962
:1006C000C02985190516851D0512080007080F3970
:1006D000103A0719303A8700080007080F39203A06
:1006E0000719303A8700080007080F39303A071910
:1006F000303A8700080007080F390718203A871892
:10070000103A8700080007080F39003A0719303AF5
:1007100087000800400883169A009B011C1555307D
:100720009D00AA309D009C149C18942B1C118312D0
:100730000800810183160108F0398100831214300A
:10074000B10020308B000B114018B323C018AE232A
:100750000B1DA42BB10BA32B8B01080085190516CB
:10076000851D051208000708C100411DC02B411856
:10077000C92BC118CB2B85190516851D051208003C
:10078000411CC92BC11CCB2B85190516851D0512D3
:10079000080005120800051608009923B20BCD2B9E
:1007A000080085018701073099008B01831670309E
:1007B0008F0091012F3085000730870000309500B1
:1007C00002309600803081008312103090000512B4
:1007D0008715C001031083169B011C141A0883128D
:1007E0007F39C000C01E87114018002CC018FE2B96
:1007F000401DFC2B6D23012C6623012C7423012C3E
:100800007B23401E152CA330B3008E018F018C0179
:10081000101485190516851D051240187B230C1C24
:10082000092C8C01B30B092C10104018532BC01845
:08083000C029401DCA29D2298C
:040838000034003454
:02400E00D438A4
:024200001000AC
:00000001FF
