:020000040000FA
:08000000830100000000052847
:020008000800EE
:06000A00850187010730AB
:10001000990018308B00831670308F0091012F30BB
:100020008500073087000030950002309600C03010
:10003000810083123030900005128715D001031023
:1000400083169B011C141A088312D000D01E87113E
:100050005018B521D018A7215019AE21D019BC21B4
:10006000501E44282230D2008E018F018C011014C2
:1000700085190516851D0512D019BC210C1C3828C0
:100080008C01D20B382810105018E028D018EB281B
:100090005019F3281929851857280B100B185728C1
:1000A000851AF5285018E028D01918294E288518E7
:1000B0005728A101A20103100000000005195E28C5
:1000C0000508A10D0139A104A20A8B108B1C66281A
:1000D0000508A21D6128A001A201A00D0139A004FC
:1000E000A20A8B108B1C72280508221D6D28043073
:1000F00020060319842808302006031989280C30AB
:10010000200603198E284B28DF3021060319E52825
:100110004B28DF3021060319BF284B285F3021060A
:100120000319DA289F3021060319ED28CF30210664
:100130000319AB28D730210603193029DB302106FB
:1001400003196029DD30210603191329DE30210649
:10015000031913294B288316851283128516501A0A
:10016000A2211F309621831685168312501E4B281C
:100170002230D2008E018F018C0110143828831692
:100180008512831285161F3096218316851603016A
:1001900096218512831285161F30962183168516A7
:1001A0008312501E4B283930D2008E018F018C01F2
:1001B000101438285008F039013AD000CB21B5216D
:1001C00085190516851D05124B285008F039023A8D
:1001D000D000CB21A72105124B285008F039043A52
:1001E000D000CB21AE2105164B287F309221851EF1
:1001F000FE2807083F39D100851A0B29501E4B28CD
:1002000085190516851D05122230D2008E018F0139
:100210008C0110143828070851063F390319FC28AF
:10022000BC21851A10295008F039083AD000CB219A
:10023000BC2107080739D100511D27290430510678
:100240000319E028053051060319EB28F328013083
:1002500051060319F328023051060319EB28E02850
:100260005008103AD000CB21501A4B2907083F39CB
:10027000D100C42106309C21AE2106309C21B5213D
:1002800006309C21A72106309C21C42106309C21E8
:10029000510887004B2807083F39D100C421063098
:1002A0009C21A72106309C21B52106309C21AE213E
:1002B00006309C21C42106309C21510887004B2820
:1002C0005008203AD000CB21D01A7C29871107088A
:1002D0003F39D100C42106309C21A72106309C2142
:1002E000C42106309C21A72106309C21C421063060
:1002F0009C21510887004B28871507083F39D100FA
:10030000C42106309C21AE2106309C21C421063038
:100310009C21AE2106309C21C42106309C2151082D
:1003200087004B28AF00AF0B93299929AE0003013A
:100330009229AE0B98290800AD0003019621AD0B60
:100340009E29080085190516851D05120800070855
:100350000F39103A0719303A8700080007080F399B
:10036000203A0719303A8700080007080F39303A59
:100370000719303A8700080007080F390718203A94
:100380008718103A8700080007080F39003A071944
:10039000303A8700080083169A001C1555309D00DE
:0A03A000AA309D009C14831208008F
:0403AA0000340034E7
:02400E00D438A4
:0242000022009A
:00000001FF
