:020000040000FA
:08000000830100000000232A27
:020008000800EE
:06000A00851A07294018C9
:10001000F228C0195229FF30A000FF30A1008E0144
:100020008F018C011014851821280B100B18212822
:10003000851A07290B1821280C1C05280B182128C4
:10004000162800008B10051CA1138B1C25288B1073
:100050000B10051C21138B1C2B288B100000051C7A
:10006000A1128B1C31288B100000051C21128B1C47
:1000700037288B100000051CA1118B1C3D288B100C
:100080000000051C21118B1C43288B100000051C4F
:10009000A1108B1C49288B100000051C21108B1C03
:1000A0004F288B100000051CA0138B1C55288B10AB
:1000B0000000051C20138B1C5B288B100000051C06
:1000C000A0128B1C61288B100000051C20128B1CB9
:1000D00067288B100000051CA0118B1C6D288B104D
:1000E0000000051C20118B1C73288B100000051CC0
:1000F000A0108B187B2800000000051C20100B1896
:1001000005284F30200603198E288F30200603194A
:100110009328CF302006031998280528DF302106C0
:100120000319F7280528DF3021060319CA280528F6
:100130005F3021060319EC289F3021060319FF28A0
:10014000CF3021060319B528D730210603196A29B3
:10015000DB3021060319A429DD30210603194D29BE
:10016000DE30210603194D290528831685128312D6
:1001700085161422401AE021142285128316851652
:100180008312401E0528A330B3008E018F018C011D
:100190001014572A831685128312851614221422EE
:1001A00085128316851683121430B2001F2283161F
:1001B0008512831285161422401AE021142285121A
:1001C000831685168312401E0528FF30B3008E016A
:1001D0008F018C011014572A40087039013AC00071
:1001E0000922F32185190516851D05120B284008E3
:1001F0007039023AC0000922E52105120B28400897
:100200007039043AC0000922EC2105160B2814228B
:100210001422851E052807083F39C100851A452983
:10022000401E052885190516851D051214228519FD
:100230000516851D0512142285190516851D051242
:10024000C23081003A30B2000A30B10081010B1196
:10025000851A3E2985190516851D05120B1D2829AD
:100260000B11B10B28290A30B100B20B28299B30A1
:10027000B3008E018F018C011014572AFB30B3009C
:100280008E018F018C011014572A070841063F394F
:1002900003190E29FA21851A4A2940087039083AAB
:1002A000C0000922FA2107080739C100411D612950
:1002B000043041060319F228053041060319FD28D0
:1002C00005290130410603190529023041060319A9
:1002D000FD28F2284008103AC0000922401A8A2955
:1002E00007083F39C10002223C30B2001F22EC2136
:1002F0003C30B2001F22F3213C30B2001F22E52126
:100300003C30B2001F2202223C30B2001F224108C2
:100310008700052807083F39C10002223C30B2009F
:100320001F22E5213C30B2001F22F3213C30B200F5
:100330001F22EC213C30B2001F2202223C30B200CE
:100340001F224108870005284008203AC0000922E2
:10035000C01AC529871107083F39C10002223C3065
:10036000B2001F22E5213C30B2001F2202223C30A5
:10037000B2001F22E5213C30B2001F2202223C3095
:10038000B2001F22410887000528871507083F395A
:10039000C10002223C30B2001F22EC213C30B200EE
:1003A0001F2202223C30B2001F22EC213C30B2005E
:1003B0001F2202223C30B2001F224108870005287C
:1003C00085190516851D0512080007080F39103A12
:1003D0000719303A8700080007080F39203A071933
:1003E000303A8700080007080F39303A0719303AC9
:1003F0008700080007080F390718203A8718103AB5
:100400008700080007080F39003A0719303A8700BB
:100410000800400883169A001C1555309D00AA302C
:100420009D009C1483120800C23081000A30B10084
:1004300081010B110B1D1A2AB10B192A0800142275
:10044000B20B1F2A08008501870107309900383058
:100450008B00831670308F0091012F30850007309C
:1004600087000030950002309600C2308100831270
:100470001030900005128715C001031083169B01F0
:100480001C141A0883127F39C000C01E871140183F
:10049000F321C018E5214019EC21C019FA21401EB2
:1004A000632AA330B3008E018F018C0110148519CB
:1004B0000516851D0512C019FA210C1C572A8C013E
:1004C000B30B572A10104018F228C018FD28401905
:0404D000052953297E
:0404D40000340034BC
:02400E00D438A4
:0242000022009A
:00000001FF
