:020000040000FA
:08000000830100000000052847
:020008000800EE
:06000A00850187010730AB
:10001000990000308B008316FF2390002F3085005D
:100020000730870000309500803081008312303027
:10003000900005128715D001031083169B011C1434
:100040001A088312D000D01E87115018AB21D01887
:100050009D215019A421D019B221501E41281130E0
:10006000D2008E018F018C01101485190516851D93
:100070000512D019B2210C1C35288C01D20B352861
:1000800010105018D628D018E1285019E9280F2947
:1000900085185128851AEB285018D628D0190E2912
:1000A000482885185128A101A201031005195628D6
:1000B0000508A10D0139A104A20A051D5D28050846
:1000C000A21D5928A001A201A00D0139A004A20A75
:1000D000051D68280508221D642804302006031920
:1000E0007A280830200603197F280C3020060319CF
:1000F00084284828DF3021060319DB284828DF3010
:1001000021060319B52848285F3021060319D02895
:100110009F3021060319E328CF3021060319A128B7
:10012000D730210603192629DB3021060319562969
:10013000DD30210603190929DE30210603190929BA
:1001400048288316851283128516501A9821153077
:100150008C21831685168312501E48281130D20038
:100160008E018F018C01101435288316851283129D
:10017000851615308C218316851603018C21851276
:100180008312851615308C21831685168312501E16
:1001900048281C30D2008E018F018C0110143528A4
:1001A0005008F039013AD000C121AB21851905165C
:1001B000851D051248285008F039023AD000C121A7
:1001C0009D21051248285008F039043AD000C12179
:1001D000A4210516482803018C21851EF428070850
:1001E0003F39D100851A0129501E48288519051666
:1001F000851D05121130D2008E018F018C01101463
:100200003528070851063F390319F228B221851A0B
:1002100006295008F039083AD000C121B221070858
:100220000739D100511D1D29043051060319D62864
:10023000053051060319E128E92801305106031958
:10024000E928023051060319E128D6285008103A4F
:10025000D000C121501A412907083F39D100BA21E5
:1002600003309221A42103309221AB21033092214B
:100270009D2103309221BA21033092215108870039
:10028000482807083F39D100BA21033092219D2127
:1002900003309221AB2103309221A421033092211B
:1002A000BA21033092215108870048285008203A8B
:1002B000D000C121D01A7229871107083F39D10017
:1002C000BA21033092219D2103309221BA210330BB
:1002D00092219D2103309221BA21033092215108AD
:1002E00087004828871507083F39D100BA21033015
:1002F0009221A42103309221BA2103309221A4211A
:1003000003309221BA2103309221510887004828F6
:10031000AF00AF0B89298F29AE0003018829AE0BEE
:100320008E290800AD0003018C21AD0B9429080033
:1003300085190516851D0512080007080F39103AA2
:100340000719303A8700080007080F39203A0719C3
:10035000303A8700080007080F39303A0719303A59
:100360008700080007080F390718203A8718103A45
:100370008700080007080F39003A0719303A87004C
:10038000080083169A001C1555309D00AA309D0068
:060390009C14831208001A
:0403960000340034FB
:02400E00D43F9D
:0242000022009A
:00000001FF
