:020000040000FA
:1000000000000000000010280510851005110512E1
:1000100085190828000000000000000000002028CA
:10002000831285010730990000308B008316293038
:10003000850000309500803081008312051204286D
:100040004030FD2105160515C40100000511831679
:100050000510851483120B30A1000130A20004307A
:10006000A3000F30A4000430A5000B30A60005301B
:10007000A7000730A8000F30A9000D30AA000630F5
:10008000AB000130AC000E30AD000930AE000830DE
:10009000AF000F30B1000030B2000A30B3000130C1
:1000A000B4000830B5000530B6000F30B70001309D
:1000B000B800B9000E30BA000130BB000030BC00FF
:1000C0000D30BD000E30BE000C30BF00BA30F9213B
:1000D00000000000B11905140000000005100130F7
:1000E000F92100000000311805140000000005107F
:1000F0000130F92100000000B118051400000000D3
:1001000005100130F921000000003119051400002C
:10011000000005100130F9218316051485108312A3
:100120002430F92100000130C3000130203E84005A
:100130000008A000A0102018A014201620112008EC
:1001400085000508C20010308500062285190428A4
:100150004418C20C04160008C206041242182028D3
:10016000000000000C30F9210518032A8518032A25
:10017000840A0F300405031D98280130F921D72087
:10018000D720D7203708C4003718CA28831605148B
:100190008510CE288316051085140000831285195A
:1001A0000428C30137080F39031D962895286A21B2
:1001B000000000002F08A000013EA1072208C00097
:1001C0002108A207A20AA2092308C1000F30A30533
:1001D00040080F39A307A30A231A29294108A407B5
:1001E0002508C0002408A5072608C10040080F39CB
:1001F000083EC000401E2607A6004108013EA70792
:100200002708013EA8072808013EA9072908013E42
:10021000AA072A08013EAB072B08013EAC072C08B1
:10022000013EAD072D08013EAE072E08013EAF0787
:1002300020080F390F3EA000000000000000000061
:1002400000000000000000000000201E69290000DE
:10025000DC284108A3072408C0002308A4072508B8
:10026000C10040080F39083EC000401E2507A50008
:100270004108013EA6072608013EA7072708013EC0
:10028000A8072808013EA9072908013EAA072A084D
:10029000013EAB072B08013EAC072C08013EAD0721
:1002A0002D08013EAE072E08013EAF0720080F398A
:1002B0000F3EA00000000000000000000000000051
:1002C00000000000000000000000201E692900005E
:1002D000DC2808003F08B000013EB1073208C0002A
:1002E0003108B207B20AB2093308C1000F30B305B2
:1002F00040080F39B307B30A331AB9294108B407C4
:100300003508C0003408B5073608C10040080F3969
:10031000083EC000401E3607B6004108013EB70740
:100320003708013EB8073808013EB9073908013ED1
:10033000BA073A08013EBB073B08013EBC073C0830
:10034000013EBD073D08013EBE073E08013EBF0716
:1003500030080F390F3EB000000000000000000020
:1003600000000000000000000000301E69290000AD
:100370006C294108B3073408C0003308B4073508B6
:10038000C10040080F39083EC000401E3507B500C7
:100390004108013EB6073608013EB7073708013E5F
:1003A000B8073808013EB9073908013EBA073A08CC
:1003B000013EBB073B08013EBC073C08013EBD07B0
:1003C0003D08013EBE073E08013EBF0730080F3919
:1003D0000F3EB00000000000000000000000000020
:1003E00000000000000000000000301E692900002D
:1003F0006C29CF00CF0BFA290800CE000301F921A8
:10040000CE0BFF29080085190428032A431C132A50
:1004100022300406031D172A421C112A000009304D
:100420001C2A06301C2A000000000000000000000A
:0C0430000000000000001D2AB2000800BF
:02400E00D33F9E
:00000001FF
