:020000040000FA
:100000008316FF2390008312831285010730990025
:1000100000308B0083162F3085000F3087000030B2
:1000200095008030810083128516A4010719A4145D
:10003000A301A41C8F28A314A31C2328851905162B
:10004000851D0512A920851C1C2885182528A001BE
:10005000A101A201031005192B280508A00D0139E3
:10006000A004A20A051D3228A21D2D28A201050800
:10007000A10D0139A104A20A051D3C28221D372823
:100080000430210603194D2808302106031952288F
:100090000C302106031959281C28DF302006031DC7
:1000A0001C288F28DF302006031D1C28A41C812853
:1000B00070285F302006031993289F30200603190B
:1000C0008B28CF302006031966281C28831685123A
:1000D0008312851615309B208316851683121C28E3
:1000E000831685128312851615309B20831685167C
:1000F00003019B20851215309B20831685168312E1
:100100001C2883168512831285161E30A1208316A3
:10011000851683121C280516A301B0201C28051281
:10012000A301B0201C28A301A418A3141C28AF000D
:10013000AF0B98289E28AE0003019728AE0B9D2890
:100140000800AD0003019B20AD0BA3280800A41CF0
:10015000B0280301071820388718103887000800D6
:0E0160002030051E10308719303A8700080045
:02016E0000345B
:02017000003459
:02400E00D43F9D
:00000001FF
