:020000040000FA
:100000008312031385010730990000308B0083169B
:1000100003132F3085000F308700003095008030AB
:100020008100831203138516A4010719A414A301E8
:10003000A41C9928A314A31C222885190516851D24
:100040000512B320851C1B2885182428A001A101B6
:10005000A20103100508A00D0139A004A20A051D84
:100060002F28A21D2A28A2010508A10D0139A104EB
:10007000A20A051D3928221D34280430210603193F
:100080004A280830210603194F280C30210603198D
:1000900056281B28DF302006031D1B289928DF3037
:1000A0002006031D1B28A41C872871285F3020060A
:1000B00003199D289F30200603199528CF3020066C
:1000C000031963281B288316031385128312031355
:1000D00085161530A5208316031385168312031386
:1000E0001B288316031385128312031385161530FC
:1000F000A5208316031385160301A520851215304C
:10010000A520831603138516831203131B28831659
:10011000031385128312031385161E30AB2083163A
:1001200003138516831203131B280516A301BA2097
:100130001B280512A301BA201B28A301A418A3148D
:100140001B28AF00AF0BA228A828AE000301A128EE
:10015000AE0BA7280800AD000301A520AD0BAD280C
:100160000800A41CBA280301071820388718103883
:10017000870008002030051E10308719303A8700AC
:02018000080075
:02400E00D43F9D
:00000001FF
