:020000040000FA
:100000008312031385010730990000308B0083169B
:1000100003132F3085000F308700003095008030AB
:100020008100831203138516A4010719A414A301E8
:10003000A418A314851C1A2885181C28A001A10146
:10004000A20103100508A00D0139A004A20A051D94
:100050002728A21D222803100508A10D0139A1049B
:10006000A20A051D3128221E2C28A31C3C28851914
:100070000516851D0512B2204F30210603194928A7
:100080008F30210603194E28CF3021060319552839
:100090001A28DF302006031D1A289828DF30200692
:1000A000031D1A28A41C862870285F302006031917
:1000B0009C289F30200603199428CF30200603196E
:1000C00062281A28831603138512831203138516D8
:1000D0001530A420831603138516831203131A28E0
:1000E0008316031385128312031385161530A4207B
:1000F0008316031385160301A42085121530A4204E
:10010000831603138516831203131A288316031309
:1001100085128312031385161E30AA20831603133B
:100120008516831203131A280516A301B9201A286D
:100130000512A301B9201A28A301A418A3141A2890
:10014000AF00AF0BA128A728AE000301A028AE0B7B
:10015000A6280800AD000301A420AD0BAC280800C0
:10016000A41CB92803010718203887181038870005
:1001700008002030051E10308719303A870008002B
:02400E00D43F9D
:00000001FF
