:020000040000FA
:08000000830100000000A12AA9
:020008000800EE
:06000A00851A13294018BD
:10001000FE28C0195F29C01B0528FF30A000FF3053
:10002000A1008E018F018C011014851823280B105C
:100030000B182328851A13290B1823280C1C0528B4
:100040000B182328182800008B10051CA1138B1CEB
:1000500027288B100B10051C21138B1C2D288B10AF
:100060000000051CA1128B1C33288B100000051CFE
:1000700021128B1C39288B100000051CA1118B1C30
:100080003F288B100000051C21118B1C45288B106C
:100090000000051CA1108B1C4B288B100000051CB8
:1000A00021108B1C51288B100000051CA0138B1CE9
:1000B00057288B100000051C20138B1C5D288B100B
:1000C0000000051CA0128B1C63288B100000051C6F
:1000D00020128B1C69288B100000051CA0118B1CA2
:1000E0006F288B100000051C20118B1C75288B10AD
:1000F0000000051CA0108B187D2800000000051CC6
:1001000020100B180528F53021060319ED29401B96
:1001100005284F302006031996288F302006031932
:100120009F28CF3020060319A4280528DF30210698
:10013000031903297930210603195C2A0528DF30C9
:1001400021060319D62805285F3021060319F8284F
:100150009F30210603190B29CF3021060319C1282E
:10016000D730210603197729DB3021060319B1297D
:10017000DD30210603195A29DE30210603195A29D8
:10018000052883168512831285169222401A5E2254
:1001900092228512831685168312401E0528A330ED
:1001A000B3008E018F018C011014D52A831685129D
:1001B0008312851692229222851283168516831247
:1001C0001430B2009D228316851283128516922266
:1001D000401A5E2292228512831685168312401ED3
:1001E0000528FF30B3008E018F018C011014D52A31
:1001F00040087039013AC00087227122851905161E
:10020000851D05120B2840087039023AC00087226C
:10021000632205120B2840087039043AC000872277
:100220006A2205160B2892229222851E05280708AD
:100230003F39C100851A5229C013401E052885196F
:100240000516851D0512922285190516851D0512B4
:10025000922285190516851D0512C23081003A309B
:10026000B2000A30B10081010B11851A4B298519A2
:100270000516851D05120B1D35290B11B10B3529EE
:100280000A30B100B20B35299B30B3008E018F01CB
:100290008C011014D52AFB30B3008E018F018C0124
:1002A0001014D52A070841063F3903191A29782264
:1002B000851A572940087039083AC00087227822E9
:1002C00007080739C100411D6E2904304106031992
:1002D000FE2805304106031909291129013041067C
:1002E000031911290230410603190929FE28400883
:1002F000103AC0008722401A972907083F39C100E9
:1003000080223C30B2009D226A223C30B2009D2205
:1003100071223C30B2009D2263223C30B2009D220B
:1003200080223C30B2009D22410887000528070842
:100330003F39C10080223C30B2009D2263223C3014
:10034000B2009D2271223C30B2009D226A223C30D4
:10035000B2009D2280223C30B2009D2241088700DD
:1003600005284008203AC0008722C01AD2298711E8
:1003700007083F39C10080223C30B2009D22632231
:100380003C30B2009D2280223C30B2009D2263228C
:100390003C30B2009D2280223C30B2009D224108B8
:1003A00087000528871507083F39C10080223C30A7
:1003B000B2009D226A223C30B2009D2280223C3055
:1003C000B2009D226A223C30B2009D2280223C3045
:1003D000B2009D224108870005280F30200603192E
:1003E000F22905284008403AC0008722401B2A2AEB
:1003F00007083F39C10080221E30B2009D226A22C8
:100400001E30B2009D2280221E30B2009D226A2240
:100410001E30B2009D2280221E30B2009D226A2230
:100420001E30B2009D2280221E30B2009D226A2220
:100430001E30B2009D2280221E30B2009D226A2210
:100440001E30B2009D2280221E30B2009D22410843
:100450008700052807083F39C10080221E30B200FE
:100460009D2263221E30B2009D2280221E30B200E7
:100470009D2263221E30B2009D2280221E30B200D7
:100480009D2263221E30B2009D2280221E30B200C7
:100490009D2263221E30B2009D2280221E30B200B7
:1004A0009D2263221E30B2009D2280221E30B200A7
:1004B0009D22410887000528C0172A2A851905169C
:1004C000851D0512080007080F39103A0719303A40
:1004D0008700080007080F39203A0719303A8700CB
:1004E000080007080F39303A0719303A870008002A
:1004F00007080F390718203A8718103A87000800B4
:1005000007080F39003A0719303A870008004008F9
:1005100083169A001C1555309D00AA309D009C142E
:1005200083120800C23081000A30B10081010B1132
:100530000B1D982AB10B972A08009222B20B9D2A14
:100540000800850187010730990038308B00831639
:1005500070308F0091012F30850007308700003008
:10056000950002309600C230810083121030900056
:1005700005128715C001031083169B011C141A086D
:1005800083127F39C000C01E871140187122C01825
:10059000632240196A22C0197822401EE12AA33042
:1005A000B3008E018F018C01101485190516851D6D
:1005B0000512C01978220C1CD52A8C01B30BD52A40
:1005C00010104018FE28C018092940191129602967
:0405D00000340034BF
:02400E00D438A4
:0242000022009A
:00000001FF
