:020000040000FA
:10000000831285010730990000308B008316FF238F
:1000100090002F3085000F30870000309500803031
:10002000810083128516A4010719A414A301A41C3E
:100030008D28A314A31C212885190516851D0512DA
:10004000A720851C1A2885182328A001A101A20138
:100050000310051929280508A10D0139A104A20AD8
:10006000051D3028A21D2B28A2010508A00D01396D
:10007000A004A20A051D3A28221D352804302006B6
:1000800003194B2808302006031950280C3020068D
:10009000031957281A28DF302106031D1A288D2836
:1000A000DF302106031D1A28A41C7F286E285F302C
:1000B0002106031991289F30210603198928CF3082
:1000C0002106031964281A288316851283128516BF
:1000D000153099208316851683121A2883168512E7
:1000E00083128516153099208316851603019920F1
:1000F0008512153099208316851683121A288316C7
:100100008512831285161A309F2083168516831256
:100110001A280516A301AE201A280512A301AE2045
:100120001A28A301A418A3141A28AF00AF0B96280D
:100130009C28AE0003019528AE0B9B280800AD005B
:1001400003019920AD0BA1280800A31CAE280301D0
:100150000718203887181038870008002030051E3F
:0A01600010308719303A87000800BC
:04016A000034003429
:02400E00D43F9D
:00000001FF
