:020000040000FA
:08000000830100000000052847
:020008000800EE
:06000A00850187010730AB
:10001000990000308B008316FF2390002F3085005D
:100020000730870000309500803081008312303027
:10003000900005128715C001031083169B011C1444
:100040001A088312C000C01E87114018BA21C018B8
:10005000AC214019B321C019C121401E41281130E3
:10006000B3008E018F018C01101485190516851DB2
:100070000512C019C1210C1C35288C01B30B352881
:1000800010104018D428C018DF284019E7280C2980
:1000900085185128851AE9284018D428C0190B2939
:1000A000482885185128A101A201031005195628D6
:1000B0000508A10D0139A104A20A051D5D28050846
:1000C000A21D5928A001A201A00D0139A004A20A75
:1000D000051D68280508221D642804302006031920
:1000E0007A280830200603197F280C3020060319CF
:1000F00084284828DF3021060319D9284828DF3012
:1001000021060319B42848285F3021060319CE2898
:100110009F3021060319E128CF3021060319A128B9
:10012000D730210603192329DB30210603195D2965
:10013000DD30210603190629DE30210603190629C0
:1001400048288316851283128516401AA721992103
:10015000831685168312401E48281130B3008E0185
:100160008F018C0110143528831685128312851691
:100170009921831685160A30B200A32185128312B5
:1001800085169921831685168312401E48281C3037
:10019000B3008E018F018C01101435284008F0390E
:1001A000013AC000D021BA2185190516851D051216
:1001B00048284008F039023AC000D021AC2105128D
:1001C00048284008F039043AC000D021B321051670
:1001D00048289921851E482807083F39C100851AFB
:1001E000FE28401E482885190516851D0512113068
:1001F000B3008E018F018C011014352807084106C9
:100200003F390319EF28C121851A03294008F03925
:10021000083AC000D021C12107080739C100411D9B
:100220001A29043041060319D42805304106031960
:10023000DF28E728013041060319E728023041068C
:100240000319DF28D4284008103AC000D021401AF2
:10025000432907083F39C100C9211D30B200A3213D
:10026000B3211D30B200A321BA211D30B200A32159
:10027000AC211D30B200A321C9211D30B200A32141
:1002800041088700482807083F39C100C9211D30AF
:10029000B200A321AC211D30B200A321BA211D3030
:1002A000B200A321B3211D30B200A321C9211D300A
:1002B000B200A3214108870048284008203AC00026
:1002C000D021C01A7E29871107083F39C100C921F2
:1002D0001D30B200A321AC211D30B200A321C921E1
:1002E0001D30B200A321AC211D30B200A321C921D1
:1002F0001D30B200A3214108870048288715070850
:100300003F39C100C9211D30B200A321B3211D30E6
:10031000B200A321C9211D30B200A321B3211D3099
:10032000B200A321C9211D30B200A32141088700DA
:1003300048280530B100800181000B110B1D9E295A
:10034000B10B9D2908009921B20BA329080085193A
:100350000516851D0512080007080F39103A071900
:10036000303A8700080007080F39203A0719303A59
:100370008700080007080F39303A0719303A87001C
:10038000080007080F390718203A8718103A870025
:10039000080007080F39003A0719303A87000800AB
:1003A00083169A001C1555309D00AA309D009C14A0
:0403B00083120800AC
:0403B40000340034DD
:02400E00D43F9D
:0242000022009A
:00000001FF
